:030000000209BA38
:0C09BA00787FE4F6D8FD758137020A0151
:100C7B00020F0000020A0000020800000A1B01C755
:100C8B002282C48808C300C00A1180B644143211F2
:0D0C9B0001B40030010E60010C20010D4A73
:080AD1007F027E007D007C0025
:080AD9008F328E318D308C2F1D
:100AE100758902E4F58CAF32AE31AD30AC2FEC4DEF
:100AF1004E4F602FE4FFFED28C308DFDC28D0FBFB3
:100B010000010EEF64044E70EE74FF2532F532E5FC
:100B11003134FFF531E53034FFF530E52F34FFF5A1
:030B21002F80C35F
:010B240022AE
:0A0D4600D2B67F327E007D007C00F3
:080D50008F328E318D308C2FA3
:100D5800758902E532F404F58CD28C308DFDC28D94
:010D68002268
:100E1000C2B7120D46D2B7120D50C2B6120D50C253
:020E2000B722F7
:100E2200C2B7120D48C2B6120D50D2B7120D50D22F
:020E3200B622E6
:0F0E3400C2B6120D48D2B7120D50C2B7D2B622B5
:070DFC00120CD3AB077A00D3
:0D0E0300120D46D2B7120D50C2B7D2B62262
:100CA900E4FEEEC3940874809480500FEF3392B63B
:100CB900D2B7C2B7EF25E0FF0E80E7D2B67F0A129E
:090CC9000D4AD2B7120D50C2B75A
:010CD20022FF
:100CD300E4FFFEEEFDC3940874809480501BD2B7EA
:100CE300A2B6E4334207C3ED9407748094805004A2
:090CF300EF25E0FFC2B70E80DA24
:010CFC0022D5
:100DE300AB05AA07120E107FD0120CA9AF02120C8A
:090DF300A9AF03120CA9020E22A3
:100D6900120E107FD0120CA97F02120CA9120E10BC
:0F0D79007FD1120CA9120DFC120E227E00AF03C7
:010D88002248
:100D8900120E107FD0120CA97F01120CA9120E109D
:0F0D99007FD1120CA9120DFC120E227E00AF03A7
:010DA8002228
:100DA900120E107FD0120CA9E4FF120CA9120E101A
:0F0DB9007FD1120CA9120DFC120E227E00AF0387
:010DC8002208
:100B6D00120E107FD0120CA9E4FF120CA9120E1058
:100B7D007FD1120CA9120CD37508008F09120E34F7
:100B8D00120CD3750A008F0B120E34120CD3750F85
:090B9D00008F10120E03020E225B
:100BA600E509540FFDE508C4F854F0C8E509C45436
:100BB6000F48540FFB7A00741B2DF8E6F580C2A28D
:100BC600120AD1D2A2AF0374112FF8E6F580C2A3A0
:050BD600120AD1D2A3B8
:010BDB0022F7
:100BDC00E50B540FFDE50AC4F854F0C8E50BC454FA
:100BEC000F48540FFB7A00741B2DF8E6F580C2A455
:100BFC00120AD1D2A4AF0374112FF8E6F580C2A566
:050C0C00120AD1D2A57F
:010C110022C0
:100C1200E510540FFDE50FC4F854F0C8E510C454B4
:100C22000F48540FFB7A00741B2DF8E6F580C2A61C
:100C3200120AD1D2A6AF0374112FF8E6F580C2A72B
:050C4200120AD1D2A747
:010C4700228A
:100C4800120E107FD0120CA9E4FF120CA97F01121A
:100C58000CA97F01120CA97F16120CA97F01120C96
:100C6800A97F01120CA97F01120CA97F01120CA9FE
:030C7800020E2247
:020D2200AD071B
:100D2400ED54F0FF3395E0FEEF7804CEA2E713CE46
:100D340013D8F875F00AA4FFED540F2FFF3395E094
:010D4400FEB0
:010D4500228B
:040CFD00AB07AA0691
:100D01007C007D0A120A46EFC4F8540FC868FF8FB1
:100D110037AE02AF037C007D0A120A46E5374DFF6C
:010D210022AF
:0A0B2500AA297D057C00AF2CAE2B41
:040B2F008E358F363A
:100B3300AF057E007401A807088005C333CE33CE0A
:100B4300D8F9F4FFEEF45535F583E5365FF582AF5A
:100B530005AE02EBA807088005C333CE33CED8F920
:090B6300FFEE4583FEEF4582FF21
:010B6C002266
:10080000752500752601E4F527F5283094030209C3
:10081000B9E5266401452560030208B7F527F528E8
:10082000120BA6120BDC0528E52870020527C394DD
:0D0830000CE527940040E9120C1220926C98
:10083D00E510541FFF120D228E298F2A052AE52A55
:10084D0070020529D3940CE5299400400675290002
:10085D00752A01AF2AAE29120CFDEF3395E0F52B69
:10086D008F2CAE0FE5107805CEC313CE13D8F975C6
:10087D0029005401F52AFB120B258E2D8F2E7B019D
:10088D007A000D120B2F8E298F2A85290F852A109C
:0C089D00AD2A7F02120DE37F0F120AD378
:1008A90020930B7525007526027F0F120AD3E526C2
:1008B90064024525706EF527F528120BA6120C1255
:1008C9000528E52870020527C3940CE52794004004
:0708D900E9120BDC20923F45
:1008E000AF0B120D228E298F2A052AE52A700205E8
:1008F00029D3943BE52994004005E4F529F52AAF76
:100900002AAE29120CFDEF3395E0F5298F2AF50A5E
:0F091000852A0BAD2A7F01120DE37F0F120AD348
:10091F0020930B7525007526037F0F120AD3E5264A
:10092F0064034525600302080BF527F528120C1206
:10093F00120BDC0528E52870020527C3940CE52768
:0A094F00940040E9120BA620924C20
:10095900AE0FE5107805CEC313CE13D8F97529006B
:100969005401F52A640145297006F529F52A800BF9
:10097900E52A45297005F529752A01850F2B85106A
:100989002CAB2A120B258E2D8F2E852D0F852E101F
:0C099900AD2E7F02120DE37F0F120AD377
:1009A50030930302080B7F0F120AD37525007526B5
:0409B5000102080B28
:0109B900221B
:100DC900120C487580FFD294D293D292120B6D12F5
:0A0DD9000C12120BDC120BA680F2C4
:1009C600020DC9E493A3F8E493A34003F68001F271
:1009D60008DFF48029E493A3F85407240CC8C33332
:1009E600C4540F4420C8834004F456800146F6DF01
:1009F600E4800B0102040810204080900C7BE47E0A
:100A0600019360BCA3FF543F30E509541FFEE493F5
:100A1600A360010ECF54C025E060A840B8E493A3BC
:100A2600FAE493A3F8E493A3C8C582C8CAC583CAE7
:100A3600F0A3C8C582C8CAC583CADFE9DEE780BE9F
:010CA800004B
:100A4600C2D5EC30E709B2D5E4C39DFDE49CFCEECB
:100A560030E715B2D5E4C39FFFE49EFE120A7CC3BD
:100A6600E49DFDE49CFC8003120A7C30D507C3E4B8
:060A76009FFFE49EFE223A
:100A7C00BC000BBE0029EF8DF084FFADF022E4CC5E
:100A8C00F875F008EF2FFFEE33FEEC33FCEE9DEC27
:100A9C00984005FCEE9DFE0FD5F0E9E4CEFD22ED6D
:100AAC00F8F5F0EE8420D21CFEADF075F008EF2FB7
:100ABC00FFED33FD4007985006D5F0F222C398FDA8
:050ACC000FD5F0EA2245
:00000001FF
